:020000040800F2
:10000000280400200101000845050008DB04000861
:1000100041050008490100084B16000800000000D7
:10002000000000000000000000000000E5060008DD
:100030004D01000800000000CD050008510F000828
:100040001B0100081B0100081B0100081B01000820
:100050001B0100081B0100081B0100081B01000810
:100060001B0100081B0100081B0100081B01000800
:100070001B0100081B0100081B0100081B010008F0
:100080001B0100081B0100081B0100081B010008E0
:100090001B0100081B0100081B0100081B010008D0
:1000A0001B0100081B0100081B0100081B010008C0
:1000B0001B0100081B010008B50F00081B01000808
:1000C0001B0100081B0100081B0100081B010008A0
:1000D0001B0100081B0100081B0100081B01000890
:1000E0001B0100081B0100081B010008DFF80CD0F1
:1000F00000F018F800480047E11600082804002026
:100100000648804706480047FEE7FEE7FEE7FEE7B1
:10011000FEE7FEE7FEE7FEE7FEE7FEE7550F000815
:10012000ED000008064C074D06E0E06840F00103D2
:1001300094E8070098471034AC42F6D3FFF7DAFF93
:10014000A8170008C817000800BFFEE7704708B5E9
:100150004FF4E06000F030FA1E208DF8000000201F
:100160008DF8010008208DF8020001208DF80300B1
:10017000684600F0E9F908BD08B50121042000F047
:1001800037FA0120ADF8000018208DF80300032095
:100190008DF802006946284800F012F90121042078
:1001A00000F026FA0220ADF800006946224800F06F
:1001B00007F90121082000F01BFA0420ADF8000027
:1001C00069461D4800F0FCF80121082000F010FAF3
:1001D0000820ADF800006946174800F0F1F8012149
:1001E000042000F005FA4020ADF8000069461248EE
:1001F00000F0E6F80121042000F0FAF98020ADF8C3
:10020000000069460C4800F0DBF80121082000F0EE
:10021000EFF90120ADF800006946084800F0D0F879
:100220000121082000F0E4F90220ADF80000694641
:10023000024800F0C5F808BD00080140000C01406C
:1002400010B5FFF799FF00F003F8FFF780FF10BD2E
:1002500000B587B00121084600F0BAF9012102205B
:1002600000F0B6F90121042000F0B2F9C720ADF882
:10027000140041F61F40ADF810000020ADF8160044
:10028000ADF812008DF8180004A94FF0804001F07D
:100290008BF8C720ADF8140041F61F40ADF81000F0
:1002A00004A9454801F080F840F2E730ADF81400A9
:1002B0004720ADF8100004A9404801F075F860200F
:1002C000ADF800000120ADF802000020ADF80800F4
:1002D0000F20ADF8060069464FF0804000F000FFA7
:1002E0000821C80600F048FF0F20ADF80600694657
:1002F0004FF0804000F04AFF0821C80600F098FF48
:100300000F20ADF8060069464FF0804000F09EFFD8
:100310000821C80600F0EAFF0F20ADF80600694684
:100320004FF0804000F0ECFF0821C80601F026F8ED
:100330001120ADF8060069461F4800F0D1FE0821E3
:100340001D4800F019FF0E20ADF8060069461A4856
:1003500000F01CFF0821184800F06AFF1020ADF8DB
:1003600006006946144800F071FF0821124800F0A9
:10037000BDFF0E20ADF8060069460F4800F0C0FF33
:1003800008210D4800F0FAFF01210C4800F06EFE34
:1003900001221146094800F099FE0121880700F06A
:1003A0006BFE0121044800F067FE0121034800F0C4
:1003B00063FE07B000BD00000004004000080040DC
:1003C0002DE9F041024600250026002000230024EC
:1003D000002791F803C00CF00F0591F803C00CF052
:1003E000100CBCF1000F03D091F802C04CEA0505D7
:1003F00091F800C0BCF1000F31D0146800202BE050
:100400004FF0010C0CFA00F3B1F800C00CEA03063F
:100410009E4220D183004FF00F0C0CFA03F7BC432F
:1004200005FA03FC4CEA040491F803C0BCF1280F60
:1004300006D14FF0010C0CFA00FCC2F814C00AE01F
:1004400091F803C0BCF1480F05D14FF0010C0CFA34
:1004500000FCC2F810C0401C0828D1D31460B1F8C9
:1004600000C0BCF1FF0F34DD546800202EE000F125
:10047000080C4FF0010808FA0CF3B1F800C00CEAC0
:1004800003069E4221D183004FF00F0C0CFA03F7B4
:10049000BC4305FA03FC4CEA040491F803C0BCF128
:1004A000280F05D100F1080C08FA0CF8C2F81480E6
:1004B00091F803C0BCF1480F07D100F1080C4FF0D0
:1004C000010808FA0CF8C2F81080401C0828CED3A6
:1004D0005460BDE8F0810161704700BFFEE7000095
:1004E00008B50121082000F083F80120ADF80000D4
:1004F00010208DF8030003208DF8020069460F4894
:10050000FFF75EFF0220ADF8000069460B48FFF7D9
:1005100057FF2020ADF8000069460848FFF750FF5C
:1005200001210648FFF7D7FF02210448FFF7D3FF58
:1005300020210248FFF7CFFF08BD0000000C01405A
:1005400000BFFEE77047000070B5002100230F22B6
:10055000C47804B3154C246804F4E064C4F5E06482
:10056000210AC1F10403CA40447804FA03F18478F3
:100570001440214309010E4C0678A155047804F07B
:100580001F050124AC4005786D11AD0005F1E02593
:10059000C5F8004109E0047804F01F050124AC40CF
:1005A000044D0678761145F8264070BD0CED00E04C
:1005B00000E400E080E100E002490143024A1160EA
:1005C000704700000000FA050CED00E070470000E5
:1005D00029B1064AD2690243044BDA6104E0034AB6
:1005E000D2698243014BDA6170470000001002407B
:1005F00029B1064A92690243044B9A6104E0034A16
:1006000092698243014B9A617047000000100240DA
:1006100030B500210022002400232D4D6D6805F027
:100620000C0121B1042905D0082923D105E0294D69
:10063000056022E0274D05601FE0254D6D6805F43B
:100640007012234D6D6805F48034022505EB92424B
:100650001CB9214D554305600BE01D4D6D6805F437
:1006600000351DB11C4D5543056002E0194D554341
:10067000056002E0174D056000BF00BF144D6D68B6
:1006800005F0F0010909154D6B5C0568DD4045601A
:100690000F4D6D6805F4E061090A104D6B5C45680B
:1006A000DD4085600A4D6D6805F46051C90A0B4D47
:1006B0006B5C4568DD40C560054D6D6805F44041E3
:1006C000890B074D6B5CC568B5FBF3F5056130BD63
:1006D0000010024000127A0000093D0000000020D6
:1006E000100000207047000010B540480088012825
:1006F00026DB3E480088FA2822DA15213C4800F023
:100700004AFE3B4800F0C7FC122803D10A213848B2
:1007100000F043FE0C21364800F041FE344800F062
:10072000C0FC0A2803D11221314800F03AFE122100
:10073000480700F030FE0D21880700F030FE54E03D
:100740002A480088FA280FDB28480088B0F5AF7FD8
:100750000ADA0F214FF0804000F01DFE0F214FF00C
:10076000804000F01CFE40E020480088B0F5AF7FDC
:100770001EDB1E480088B0F5167F19DA0D211C48D3
:1007800000F009FE12211A4800F007FE1421184853
:1007900000F005FE0A21164800F003FE112188072B
:1007A00000F0FBFD0C214FF0804000F0FAFD1CE052
:1007B0000E480088B0F5167F0FDB0C480088B0F5B6
:1007C0002F7F0ADA0F214FF0804000F0E6FD0F2165
:1007D0004FF0804000F0E5FD07E004480088B0F5E8
:1007E0002F7F02DB00200149088010BD1600002089
:1007F0000004004010B57848008801283DDB7648A9
:100800000088FA2839DA4FF0804000F041FC1328C4
:1008100011D14FF0804000F03EFC13280BD14FF077
:10082000804000F03BFC0B2805D14FF0804000F0E9
:1008300038FC0B2821D01021880600F0ACFD1021D7
:10084000880600F0AAFD0E214FF0804000F0A7FDC1
:100850000E214FF0804000F0A4FD11215F4800F010
:100860009AFD0E215D4800F098FD10215B4800F0D4
:1008700096FD0E21594800F094FD57480088FA284B
:100880003CDB55480088B0F5FA7F37DA4FF08040FE
:1008900000F0FEFB132811D14FF0804000F0FBFB6D
:1008A00013280BD14FF0804000F0F8FB0B2805D146
:1008B0004FF0804000F0F5FB0B281FD01121880776
:1008C00000F069FD1121880700F067FD0D21880700
:1008D00000F065FD0D21880700F063FD11213F4800
:1008E00000F059FD0E213D4800F057FD10213B4816
:1008F00000F055FD0E21394800F053FD36480088C0
:10090000B0F5FA7F3FDB3448008840F2EE218842A0
:1009100039DA4FF0804000F0BBFB132811D14FF0C3
:10092000804000F0B8FB13280BD14FF0804000F05E
:10093000B5FB0B2805D14FF0804000F0B2FB0B282F
:1009400021D01221480700F026FD1221480700F0AF
:1009500024FD0C214FF0804000F021FD0C214FF0D0
:10096000804000F01EFD11211C4800F014FD0E21F6
:100970001A4800F012FD1021184800F010FD0E2159
:10098000164800F00EFD1448008840F2EE2188421F
:1009900018DB11480088B0F57A7F13DA13214FF085
:1009A000804000F0F8FC13214FF0804000F0F5FC8F
:1009B0000B214FF0804000F0F2FC0B214FF0804003
:1009C00000F0EFFC04480088B0F57A7F02DB0020DD
:1009D0000149088010BD00002000002000040040F4
:1009E00010B544480088012815DB42480088FA28E1
:1009F00011DA1221404800F0D0FC12213E4800F0EC
:100A0000D0FC1121880700F0C8FC0C214FF0804079
:100A100000F0C7FC12E037480088FA280EDB3548A2
:100A20000088B0F5AF7F09DA0F214FF0804000F069
:100A3000B4FC0F214FF0804000F0B3FC2D4800883B
:100A4000B0F5AF7F1DDB2B480088B0F5167F18DAB4
:100A50001521294800F09FFC1221274800F09DFC39
:100A60001421254800F09BFC1221234800F099FC3A
:100A70001221480700F08FFC0D21880700F08FFC41
:100A800013E01C480088B0F5167F0EDB194800887B
:100A9000B0F52F7F09DA0F214FF0804000F07BFC8A
:100AA0000F214FF0804000F07AFC12480088B0F52A
:100AB0002F7F15DB0F480088B0F57A7F10DA0D2103
:100AC0000D4800F068FC0A210B4800F066FC0C2180
:100AD000094800F064FC0A21074800F062FC07E0C6
:100AE00004480088B0F57A7F02DB002001490880C5
:100AF00010BD00001A0000200004004010B5274877
:100B00000088012823DB25480088FA281FDA1321F2
:100B10004FF0804000F03FFC13214FF0804000F088
:100B20003CFC4FF0804000F0B9FA0B2804D11321AF
:100B30004FF0804000F033FC4FF0804000F0B1FAFD
:100B40000B2804D113214FF0804000F02AFC1348F9
:100B50000088FA2819DB11480088B0F5FA7F14DA0A
:100B60000B214FF0804000F016FC0B214FF080402D
:100B700000F013FC0B214FF0804000F010FC0B2123
:100B80004FF0804000F00DFC07E004480088B0F50D
:100B9000FA7F02DB00200149088010BD1E00002002
:100BA00010B50F214FF0804000F0F5FB0F214FF002
:100BB000804000F0F2FB0F214FF0804000F0EFFB8F
:100BC0000F214FF0804000F0ECFB1121074800F0AE
:100BD000E2FB0E21054800F0E0FB1021034800F085
:100BE000DEFB0E21014800F0DCFB10BD00040040DC
:100BF00010B540480088012826DB3E480088FA28C6
:100C000022DA0D213C4800F0C6FB3B4800F043FAD5
:100C10000A2803D11221384800F0BFFB14213648BE
:100C200000F0BDFB344800F03CFA122803D10A2141
:100C3000314800F0B6FB1221480700F0ACFB0D2153
:100C4000880700F0ACFB54E02A480088FA280FDB44
:100C500028480088B0F5AF7F0ADA0F214FF08040B6
:100C600000F099FB0F214FF0804000F098FB40E02E
:100C700020480088B0F5AF7F1EDB1E480088B0F525
:100C8000167F19DA15211C4800F085FB0A211A4845
:100C900000F083FB0C21184800F081FB122116485C
:100CA00000F07FFB1121880700F077FB0C214FF04B
:100CB000804000F076FB1CE00E480088B0F5167FFF
:100CC0000FDB0C480088B0F52F7F0ADA0F214FF0B8
:100CD000804000F062FB0F214FF0804000F061FB8C
:100CE00007E004480088B0F52F7F02DB00200149AF
:100CF000088010BD1C0000200004004010B54448CE
:100D00000088012815DB42480088FA2811DA0A21F8
:100D1000404800F042FB0A213E4800F042FB11210E
:100D2000880700F03AFB0C214FF0804000F039FBBF
:100D300012E037480088FA280EDB35480088B0F505
:100D4000AF7F09DA0F214FF0804000F026FB0F2122
:100D50004FF0804000F025FB2D480088B0F5AF7FB4
:100D60001DDB2B480088B0F5167F18DA0D212948C5
:100D700000F011FB0A21274800F00FFB0C21254849
:100D800000F00DFB0A21234800F00BFB122148075D
:100D900000F001FB0D21880700F001FB13E01C4867
:100DA0000088B0F5167F0EDB19480088B0F52F7F5C
:100DB00009DA0F214FF0804000F0EDFA0F214FF0DB
:100DC000804000F0ECFA12480088B0F52F7F15DB68
:100DD0000F480088B0F57A7F10DA15210D4800F031
:100DE000DAFA12210B4800F0D8FA1421094800F071
:100DF000D6FA1221074800F0D4FA07E00448008828
:100E0000B0F57A7F02DB00200149088010BD0000A8
:100E1000180000200004004010B50B214FF0804066
:100E200000F0B9FA0B214FF0804000F0B6FA132120
:100E30004FF0804000F0B3FA13214FF0804000F0F3
:100E4000B0FA1121074800F0A6FA0E21054800F07B
:100E5000A4FA1021034800F0A2FA0E21014800F084
:100E6000A0FA10BD0004004010B500F001F810BD5C
:100E70000CB50020019000903348006840F48030A9
:100E80003149086000BF3048006800F4003000902D
:100E90000198401C0190009818B90198B0F5A06F16
:100EA000F1D12948006800F4003010B10120009011
:100EB00001E0002000900098012843D123480068F9
:100EC00040F01000214908600846006820F0030047
:100ED00008600846006840F0020008601A48406850
:100EE000194948600846406848600846406840F430
:100EF000806048600846406820F47C1048600846DE
:100F0000406840F4E81048600846006840F080708F
:100F1000086000BF0C48006800F000700028F9D09D
:100F20000948406820F003000749486008464068C7
:100F300040F00200486000BF0348406800F00C0029
:100F40000828F9D10CBD000000100240002002402A
:100F50007047000010B51348006840F001001149C7
:100F6000086008464068104908400E494860084635
:100F700000680E4908400B4908600846006820F4E4
:100F8000802008600846406820F4FE0048604FF466
:100F90001F008860FFF768FF4FF000600449086099
:100FA00010BD0000001002400000FFF8FFFFF6FE39
:100FB00008ED00E010B50121244800F076F8002883
:100FC00042D023480078092838D2DFE800F0051124
:100FD000171D23292F30360000201E4908801E4986
:100FE00008801E4908801E4908801E49088026E0A6
:100FF00018480088401C1749088020E016480088DF
:10100000401C154908801AE014480088401C134908
:10101000088014E012480088401C114908800EE046
:1010200010480088401C0F49088008E007E00E487F
:101030000088401C0C49088001E000E000BF00BFB0
:101040000121024800F015F810BD00000008004022
:101050001400002016000020180000201A000020B4
:101060001C0000201E00002020000020CA43028235
:101070007047CA430282704721B1028842F00102E0
:10108000028004E002884FF6FE731A400280704727
:101090000146888E70470146088F70470146888F49
:1010A00070470146B1F84000704730B50246002055
:1010B00000230024158A05EA0103958905EA010445
:1010C00013B10CB1012000E0002030BD1AB18389BA
:1010D0000B43838102E083898B4383817047000047
:1010E00070B5002400220023058C4FF6FE763540B3
:1010F0000584028C8388048B4FF68F752C40B51EB7
:101100002C400D882C43751E2A400D892A434D889A
:101110002A43144DA8420BD0134DA84208D0134DBA
:10112000A84205D0124DA84202D0124DA84213D1B8
:101130004FF6F7752A404D892A434FF6FB752A4032
:101140008D882A434FF6FF652B404FF6FF552B4005
:101150008D892B43CD892B4383800483CD8885865D
:10116000028470BD002C0140003401400040014069
:1011700000440140004801400A460021018B4FF61F
:10118000F7731940114301837047000070B50024C4
:1011900000220023058C4FF6EF7635400584028C43
:1011A0008388048B48F6FF752C404FF6FF452C4092
:1011B0000D884FF6FF7606EA05252C434FF6DF75BE
:1011C0002A400D8906EA05152A434D8806EA0515C9
:1011D0002A43154DA84202D0144DA8421DD14FF606
:1011E0007F752A404D894FF6FF7606EA05152A439A
:1011F0004FF6BF752A408D8806EA05152A434FF63B
:10120000FF352B404FF2FF752B408D8906EA85058F
:101210002B43CD8906EA85052B4383800483CD8843
:101220000587028470BD0000002C0140003401409D
:101230000A460021018B4FF2FF7319404FF6FF73EE
:1012400003EA0223194301837047000070B50024AC
:1012500000220023058C4FF6FF6635400584028C82
:101260008388848B4FF68F752C404FF6FC752C408D
:101270000D882C434FF6FF552A400D894FF6FF7617
:1012800006EA05252A434D8806EA05252A43154D19
:10129000A84202D0144DA8421DD14FF2FF752A403A
:1012A0004D894FF6FF7606EA05252A434FF6FF35AE
:1012B0002A408D8806EA05252A434EF6FF752B4005
:1012C0004DF6FF752B408D8906EA05152B43CD8918
:1012D00006EA05152B4383808483CD8885870284A5
:1012E00070BD0000002C0140003401400A4600217E
:1012F000818B4FF6F77319401143818370470000CB
:1013000070B5002200230024058C4EF6FF76354090
:101310000584038C8488828B48F6FF752A404FF63B
:10132000FF452A400D884FF6FF7606EA05252A4339
:101330004DF6FF752B400D8906EA05352B434D8888
:1013400006EA05352B430B4DA84202D00A4DA842B0
:1013500008D14BF6FF752C408D894FF6FF7606EAD3
:1013600085152C4384808283CD88A0F84050038467
:1013700070BD0000002C0140003401400A460021ED
:10138000818B4FF2FF7319404FF6FF7303EA02237C
:101390001943818370478186704701877047818731
:1013A0007047A0F840107047002202881D4B9842F9
:1013B0000ED01D4B98420BD0B0F1804F08D01B4B84
:1013C000984205D01A4B984202D01A4B984204D149
:1013D0004FF68F731A404B881A43174B984207D029
:1013E000164B984204D04FF6FF431A40CB881A435D
:1013F00002808B8883850B8803850A4B98420BD02B
:10140000094B984208D00E4B984205D00D4B98429C
:1014100002D00D4B984201D10B7A038601238382BF
:1014200070470000002C01400034014000040040DF
:1014300000080040000C0040001000400014004074
:1014400000400140004401400048014021B1828930
:1014500042F40052828104E082894DF6FF731A4003
:101460008281704700B585B001210420FFF7C0F8E4
:1014700001210820FFF7BCF801218803FFF7B8F825
:1014800001218804FFF7A4F84FF40070ADF81000B4
:1014900018208DF8130003208DF8120004A92648A7
:1014A000FEF78EFF4FF48060ADF8100004208DF839
:1014B000130004A92048FEF783FF4FF48060ADF8C5
:1014C000100018208DF8130003208DF8120004A9D5
:1014D0001948FEF775FF4FF40060ADF810000420C6
:1014E0008DF8130004A91448FEF76AFF4FF4E130A9
:1014F00000900020ADF80C000C20ADF80A00002090
:10150000ADF80800ADF80600ADF8040069460B48D8
:1015100000F026F84FF4E13000906946084800F0EA
:101520001FF801210548FFF791FF01210448FFF74B
:101530008DFF05B000BD00000008014000380140EB
:101540000048004002460020B1F5007F00D100BFF6
:1015500013880B400BB1012000E000207047000011
:101560002DE9F04786B005460E460024A24600BF8E
:10157000A1460027B08900B100BF2F462C8A4CF647
:10158000FF700440F08804432C82AC894EF6F310BF
:101590000440B08831890843718908430443AC8111
:1015A000AC8A4FF6FF400440B0890443AC8201A8E6
:1015B000FFF72EF81F48874202D1DDF810A001E0A6
:1015C000DDF80CA0A88900F4004040B10AEBCA0085
:1015D00000EB0A1031684900B0FBF1F807E00AEBB4
:1015E000CA0000EB0A1031688900B0FBF1F86420F2
:1015F000B8FBF0F004012009642101FB1089A889DF
:1016000000F4004040B1322000EBC900B0FBF1F023
:1016100000F00700044308E0322000EB09106421C9
:10162000B0FBF1F000F00F0004432C8106B0BDE8E0
:10163000F08700000038014001468888C0F30800A8
:101640007047C1F308028280704700BFFEE770B5A3
:1016500004460D4629462046FFF7F3FF00BF8021D0
:101660002046FFF76FFF0028F9D070BD014A0249FC
:1016700000F013B8BD1600082400002002E008C8DE
:10168000121F08C1002AFAD170477047002001E0FC
:1016900001C1121F002AFBD170472DE9F041164607
:1016A0000F460446002503E03946B047641C6D1C14
:1016B00020780028F8D12846BDE8F08170B50446AE
:1016C0000D46E1B20548FFF7BCFF00BF802103488B
:1016D000FFF738FF0028F9D0204670BD00380140E0
:1016E000FFF7C0FEFEF7FCFE1FA0FFF7BFFFFEF7EF
:1016F000A7FD37E020212248FFF724FF48B120480A
:10170000FFF79AFF1F490870084601781E48FFF747
:101710009EFF1C48007809281FD2DFE800F005066C
:10172000090C0F1215181B001BE0FEF7DDFF18E077
:10173000FFF7E4FA15E0FFF753F912E0FFF758FA64
:101740000FE0FFF7DBF90CE0FFF766FB09E0FFF7BE
:1017500051F806E0FFF724FA03E00CA0FFF786FF3C
:1017600000BF00BFC6E7000050574DE4BA92E8A1A1
:10177000A5E5B8A6E588B9E8BDA65C720A00000038
:10178000004800401400002000380140E697A0E423
:10179000BBBBE4BD95E78AB6E68081E68C87E7A40B
:1017A000BAEFBC810D0A0000C81700080000002035
:1017B000280000007C160008F01700082800002010
:1017C000000400008C160008000000000102030461
:1017D00001020304060708090204060800000000CD
:1017E00000000000000000000000000000000000F9
:04000005080000ED02
:00000001FF
